0000000000000000          111111111111                                                                                                                                                          
1C0000183490O MESTRE DOS MESTRES                    22222222222222            000                              00000000001467000          000N                                                          
1C0000123450CLIENTE 2 TESTE - POSTO X               00333333333333            000                              00000000001235000          000N                                                          
900000000000000000000000000200000000002702000                                                                                                                                                           
